{
  "_format": "hh3-artifact-1",
  "contractName": "CortexYieldVault",
  "sourceName": "contracts/CortexYieldVault.sol",
  "abi": [
    {
      "inputs": [
        {
          "internalType": "address",
          "name": "_initialStrategy",
          "type": "address"
        }
      ],
      "stateMutability": "nonpayable",
      "type": "constructor"
    },
    {
      "inputs": [
        {
          "internalType": "address",
          "name": "owner",
          "type": "address"
        }
      ],
      "name": "OwnableInvalidOwner",
      "type": "error"
    },
    {
      "inputs": [
        {
          "internalType": "address",
          "name": "account",
          "type": "address"
        }
      ],
      "name": "OwnableUnauthorizedAccount",
      "type": "error"
    },
    {
      "inputs": [],
      "name": "ReentrancyGuardReentrantCall",
      "type": "error"
    },
    {
      "anonymous": false,
      "inputs": [
        {
          "indexed": false,
          "internalType": "uint256",
          "name": "requestId",
          "type": "uint256"
        },
        {
          "indexed": false,
          "internalType": "bytes",
          "name": "action",
          "type": "bytes"
        }
      ],
      "name": "AgentActionExecuted",
      "type": "event"
    },
    {
      "anonymous": false,
      "inputs": [
        {
          "indexed": true,
          "internalType": "address",
          "name": "user",
          "type": "address"
        },
        {
          "indexed": false,
          "internalType": "uint256",
          "name": "amount",
          "type": "uint256"
        }
      ],
      "name": "Deposited",
      "type": "event"
    },
    {
      "anonymous": false,
      "inputs": [
        {
          "indexed": false,
          "internalType": "uint256",
          "name": "requestId",
          "type": "uint256"
        },
        {
          "indexed": false,
          "internalType": "uint256",
          "name": "data",
          "type": "uint256"
        }
      ],
      "name": "MarketDataFetched",
      "type": "event"
    },
    {
      "anonymous": false,
      "inputs": [
        {
          "indexed": true,
          "internalType": "address",
          "name": "previousOwner",
          "type": "address"
        },
        {
          "indexed": true,
          "internalType": "address",
          "name": "newOwner",
          "type": "address"
        }
      ],
      "name": "OwnershipTransferred",
      "type": "event"
    },
    {
      "anonymous": false,
      "inputs": [
        {
          "indexed": true,
          "internalType": "address",
          "name": "fromStrategy",
          "type": "address"
        },
        {
          "indexed": true,
          "internalType": "address",
          "name": "toStrategy",
          "type": "address"
        }
      ],
      "name": "Rebalanced",
      "type": "event"
    },
    {
      "anonymous": false,
      "inputs": [
        {
          "indexed": false,
          "internalType": "uint256",
          "name": "requestId",
          "type": "uint256"
        },
        {
          "indexed": false,
          "internalType": "uint256",
          "name": "requestType",
          "type": "uint256"
        }
      ],
      "name": "RiskAssessmentRequested",
      "type": "event"
    },
    {
      "anonymous": false,
      "inputs": [
        {
          "indexed": false,
          "internalType": "uint256",
          "name": "requestId",
          "type": "uint256"
        },
        {
          "indexed": false,
          "internalType": "int256",
          "name": "score",
          "type": "int256"
        }
      ],
      "name": "RiskScoreFetched",
      "type": "event"
    },
    {
      "anonymous": false,
      "inputs": [
        {
          "indexed": true,
          "internalType": "address",
          "name": "user",
          "type": "address"
        },
        {
          "indexed": false,
          "internalType": "uint256",
          "name": "amount",
          "type": "uint256"
        }
      ],
      "name": "Withdrawn",
      "type": "event"
    },
    {
      "inputs": [],
      "name": "JSON_AGENT_ID",
      "outputs": [
        {
          "internalType": "uint256",
          "name": "",
          "type": "uint256"
        }
      ],
      "stateMutability": "view",
      "type": "function"
    },
    {
      "inputs": [],
      "name": "JSON_PER_AGENT_PRICE",
      "outputs": [
        {
          "internalType": "uint256",
          "name": "",
          "type": "uint256"
        }
      ],
      "stateMutability": "view",
      "type": "function"
    },
    {
      "inputs": [],
      "name": "LLM_AGENT_ID",
      "outputs": [
        {
          "internalType": "uint256",
          "name": "",
          "type": "uint256"
        }
      ],
      "stateMutability": "view",
      "type": "function"
    },
    {
      "inputs": [],
      "name": "LLM_PER_AGENT_PRICE",
      "outputs": [
        {
          "internalType": "uint256",
          "name": "",
          "type": "uint256"
        }
      ],
      "stateMutability": "view",
      "type": "function"
    },
    {
      "inputs": [],
      "name": "MIN_DEPOSIT_RESERVE",
      "outputs": [
        {
          "internalType": "uint256",
          "name": "",
          "type": "uint256"
        }
      ],
      "stateMutability": "view",
      "type": "function"
    },
    {
      "inputs": [],
      "name": "PLATFORM",
      "outputs": [
        {
          "internalType": "contract IAgentRequester",
          "name": "",
          "type": "address"
        }
      ],
      "stateMutability": "view",
      "type": "function"
    },
    {
      "inputs": [],
      "name": "SUBCOMMITTEE_SIZE",
      "outputs": [
        {
          "internalType": "uint256",
          "name": "",
          "type": "uint256"
        }
      ],
      "stateMutability": "view",
      "type": "function"
    },
    {
      "inputs": [],
      "name": "currentStrategy",
      "outputs": [
        {
          "internalType": "address",
          "name": "",
          "type": "address"
        }
      ],
      "stateMutability": "view",
      "type": "function"
    },
    {
      "inputs": [],
      "name": "deposit",
      "outputs": [],
      "stateMutability": "payable",
      "type": "function"
    },
    {
      "inputs": [],
      "name": "fetchRiskScore",
      "outputs": [
        {
          "internalType": "uint256",
          "name": "requestId",
          "type": "uint256"
        }
      ],
      "stateMutability": "payable",
      "type": "function"
    },
    {
      "inputs": [],
      "name": "fetchVolatilityIndex",
      "outputs": [
        {
          "internalType": "uint256",
          "name": "requestId",
          "type": "uint256"
        }
      ],
      "stateMutability": "payable",
      "type": "function"
    },
    {
      "inputs": [
        {
          "internalType": "uint256",
          "name": "requestId",
          "type": "uint256"
        },
        {
          "components": [
            {
              "internalType": "address",
              "name": "validator",
              "type": "address"
            },
            {
              "internalType": "bytes",
              "name": "result",
              "type": "bytes"
            },
            {
              "internalType": "enum ResponseStatus",
              "name": "status",
              "type": "uint8"
            },
            {
              "internalType": "uint256",
              "name": "receipt",
              "type": "uint256"
            },
            {
              "internalType": "uint256",
              "name": "timestamp",
              "type": "uint256"
            },
            {
              "internalType": "uint256",
              "name": "executionCost",
              "type": "uint256"
            }
          ],
          "internalType": "struct Response[]",
          "name": "responses",
          "type": "tuple[]"
        },
        {
          "internalType": "enum ResponseStatus",
          "name": "status",
          "type": "uint8"
        },
        {
          "components": [
            {
              "internalType": "uint256",
              "name": "id",
              "type": "uint256"
            },
            {
              "internalType": "address",
              "name": "requester",
              "type": "address"
            },
            {
              "internalType": "address",
              "name": "callbackAddress",
              "type": "address"
            },
            {
              "internalType": "bytes4",
              "name": "callbackSelector",
              "type": "bytes4"
            },
            {
              "internalType": "address[]",
              "name": "subcommittee",
              "type": "address[]"
            },
            {
              "components": [
                {
                  "internalType": "address",
                  "name": "validator",
                  "type": "address"
                },
                {
                  "internalType": "bytes",
                  "name": "result",
                  "type": "bytes"
                },
                {
                  "internalType": "enum ResponseStatus",
                  "name": "status",
                  "type": "uint8"
                },
                {
                  "internalType": "uint256",
                  "name": "receipt",
                  "type": "uint256"
                },
                {
                  "internalType": "uint256",
                  "name": "timestamp",
                  "type": "uint256"
                },
                {
                  "internalType": "uint256",
                  "name": "executionCost",
                  "type": "uint256"
                }
              ],
              "internalType": "struct Response[]",
              "name": "responses",
              "type": "tuple[]"
            },
            {
              "internalType": "uint256",
              "name": "responseCount",
              "type": "uint256"
            },
            {
              "internalType": "uint256",
              "name": "failureCount",
              "type": "uint256"
            },
            {
              "internalType": "uint256",
              "name": "threshold",
              "type": "uint256"
            },
            {
              "internalType": "uint256",
              "name": "createdAt",
              "type": "uint256"
            },
            {
              "internalType": "uint256",
              "name": "deadline",
              "type": "uint256"
            },
            {
              "internalType": "enum ResponseStatus",
              "name": "status",
              "type": "uint8"
            },
            {
              "internalType": "enum ConsensusType",
              "name": "consensusType",
              "type": "uint8"
            },
            {
              "internalType": "uint256",
              "name": "remainingBudget",
              "type": "uint256"
            },
            {
              "internalType": "uint256",
              "name": "perAgentBudget",
              "type": "uint256"
            }
          ],
          "internalType": "struct Request",
          "name": "",
          "type": "tuple"
        }
      ],
      "name": "handleAutonomousActionResponse",
      "outputs": [],
      "stateMutability": "nonpayable",
      "type": "function"
    },
    {
      "inputs": [
        {
          "internalType": "uint256",
          "name": "requestId",
          "type": "uint256"
        },
        {
          "components": [
            {
              "internalType": "address",
              "name": "validator",
              "type": "address"
            },
            {
              "internalType": "bytes",
              "name": "result",
              "type": "bytes"
            },
            {
              "internalType": "enum ResponseStatus",
              "name": "status",
              "type": "uint8"
            },
            {
              "internalType": "uint256",
              "name": "receipt",
              "type": "uint256"
            },
            {
              "internalType": "uint256",
              "name": "timestamp",
              "type": "uint256"
            },
            {
              "internalType": "uint256",
              "name": "executionCost",
              "type": "uint256"
            }
          ],
          "internalType": "struct Response[]",
          "name": "responses",
          "type": "tuple[]"
        },
        {
          "internalType": "enum ResponseStatus",
          "name": "status",
          "type": "uint8"
        },
        {
          "components": [
            {
              "internalType": "uint256",
              "name": "id",
              "type": "uint256"
            },
            {
              "internalType": "address",
              "name": "requester",
              "type": "address"
            },
            {
              "internalType": "address",
              "name": "callbackAddress",
              "type": "address"
            },
            {
              "internalType": "bytes4",
              "name": "callbackSelector",
              "type": "bytes4"
            },
            {
              "internalType": "address[]",
              "name": "subcommittee",
              "type": "address[]"
            },
            {
              "components": [
                {
                  "internalType": "address",
                  "name": "validator",
                  "type": "address"
                },
                {
                  "internalType": "bytes",
                  "name": "result",
                  "type": "bytes"
                },
                {
                  "internalType": "enum ResponseStatus",
                  "name": "status",
                  "type": "uint8"
                },
                {
                  "internalType": "uint256",
                  "name": "receipt",
                  "type": "uint256"
                },
                {
                  "internalType": "uint256",
                  "name": "timestamp",
                  "type": "uint256"
                },
                {
                  "internalType": "uint256",
                  "name": "executionCost",
                  "type": "uint256"
                }
              ],
              "internalType": "struct Response[]",
              "name": "responses",
              "type": "tuple[]"
            },
            {
              "internalType": "uint256",
              "name": "responseCount",
              "type": "uint256"
            },
            {
              "internalType": "uint256",
              "name": "failureCount",
              "type": "uint256"
            },
            {
              "internalType": "uint256",
              "name": "threshold",
              "type": "uint256"
            },
            {
              "internalType": "uint256",
              "name": "createdAt",
              "type": "uint256"
            },
            {
              "internalType": "uint256",
              "name": "deadline",
              "type": "uint256"
            },
            {
              "internalType": "enum ResponseStatus",
              "name": "status",
              "type": "uint8"
            },
            {
              "internalType": "enum ConsensusType",
              "name": "consensusType",
              "type": "uint8"
            },
            {
              "internalType": "uint256",
              "name": "remainingBudget",
              "type": "uint256"
            },
            {
              "internalType": "uint256",
              "name": "perAgentBudget",
              "type": "uint256"
            }
          ],
          "internalType": "struct Request",
          "name": "",
          "type": "tuple"
        }
      ],
      "name": "handleMarketDataResponse",
      "outputs": [],
      "stateMutability": "nonpayable",
      "type": "function"
    },
    {
      "inputs": [
        {
          "internalType": "uint256",
          "name": "requestId",
          "type": "uint256"
        },
        {
          "components": [
            {
              "internalType": "address",
              "name": "validator",
              "type": "address"
            },
            {
              "internalType": "bytes",
              "name": "result",
              "type": "bytes"
            },
            {
              "internalType": "enum ResponseStatus",
              "name": "status",
              "type": "uint8"
            },
            {
              "internalType": "uint256",
              "name": "receipt",
              "type": "uint256"
            },
            {
              "internalType": "uint256",
              "name": "timestamp",
              "type": "uint256"
            },
            {
              "internalType": "uint256",
              "name": "executionCost",
              "type": "uint256"
            }
          ],
          "internalType": "struct Response[]",
          "name": "responses",
          "type": "tuple[]"
        },
        {
          "internalType": "enum ResponseStatus",
          "name": "status",
          "type": "uint8"
        },
        {
          "components": [
            {
              "internalType": "uint256",
              "name": "id",
              "type": "uint256"
            },
            {
              "internalType": "address",
              "name": "requester",
              "type": "address"
            },
            {
              "internalType": "address",
              "name": "callbackAddress",
              "type": "address"
            },
            {
              "internalType": "bytes4",
              "name": "callbackSelector",
              "type": "bytes4"
            },
            {
              "internalType": "address[]",
              "name": "subcommittee",
              "type": "address[]"
            },
            {
              "components": [
                {
                  "internalType": "address",
                  "name": "validator",
                  "type": "address"
                },
                {
                  "internalType": "bytes",
                  "name": "result",
                  "type": "bytes"
                },
                {
                  "internalType": "enum ResponseStatus",
                  "name": "status",
                  "type": "uint8"
                },
                {
                  "internalType": "uint256",
                  "name": "receipt",
                  "type": "uint256"
                },
                {
                  "internalType": "uint256",
                  "name": "timestamp",
                  "type": "uint256"
                },
                {
                  "internalType": "uint256",
                  "name": "executionCost",
                  "type": "uint256"
                }
              ],
              "internalType": "struct Response[]",
              "name": "responses",
              "type": "tuple[]"
            },
            {
              "internalType": "uint256",
              "name": "responseCount",
              "type": "uint256"
            },
            {
              "internalType": "uint256",
              "name": "failureCount",
              "type": "uint256"
            },
            {
              "internalType": "uint256",
              "name": "threshold",
              "type": "uint256"
            },
            {
              "internalType": "uint256",
              "name": "createdAt",
              "type": "uint256"
            },
            {
              "internalType": "uint256",
              "name": "deadline",
              "type": "uint256"
            },
            {
              "internalType": "enum ResponseStatus",
              "name": "status",
              "type": "uint8"
            },
            {
              "internalType": "enum ConsensusType",
              "name": "consensusType",
              "type": "uint8"
            },
            {
              "internalType": "uint256",
              "name": "remainingBudget",
              "type": "uint256"
            },
            {
              "internalType": "uint256",
              "name": "perAgentBudget",
              "type": "uint256"
            }
          ],
          "internalType": "struct Request",
          "name": "",
          "type": "tuple"
        }
      ],
      "name": "handleRiskScoreResponse",
      "outputs": [],
      "stateMutability": "nonpayable",
      "type": "function"
    },
    {
      "inputs": [],
      "name": "lastRiskCheck",
      "outputs": [
        {
          "internalType": "uint256",
          "name": "",
          "type": "uint256"
        }
      ],
      "stateMutability": "view",
      "type": "function"
    },
    {
      "inputs": [],
      "name": "owner",
      "outputs": [
        {
          "internalType": "address",
          "name": "",
          "type": "address"
        }
      ],
      "stateMutability": "view",
      "type": "function"
    },
    {
      "inputs": [
        {
          "internalType": "uint256",
          "name": "",
          "type": "uint256"
        }
      ],
      "name": "pendingRequests",
      "outputs": [
        {
          "internalType": "uint256",
          "name": "requestId",
          "type": "uint256"
        },
        {
          "internalType": "uint256",
          "name": "requestType",
          "type": "uint256"
        },
        {
          "internalType": "int256",
          "name": "lastRiskScore",
          "type": "int256"
        },
        {
          "internalType": "bytes32",
          "name": "extra",
          "type": "bytes32"
        }
      ],
      "stateMutability": "view",
      "type": "function"
    },
    {
      "inputs": [
        {
          "internalType": "address",
          "name": "newStrategy",
          "type": "address"
        }
      ],
      "name": "rebalanceTo",
      "outputs": [],
      "stateMutability": "nonpayable",
      "type": "function"
    },
    {
      "inputs": [],
      "name": "renounceOwnership",
      "outputs": [],
      "stateMutability": "nonpayable",
      "type": "function"
    },
    {
      "inputs": [],
      "name": "requestAutonomousAction",
      "outputs": [
        {
          "internalType": "uint256",
          "name": "requestId",
          "type": "uint256"
        }
      ],
      "stateMutability": "payable",
      "type": "function"
    },
    {
      "inputs": [],
      "name": "riskCheckInterval",
      "outputs": [
        {
          "internalType": "uint256",
          "name": "",
          "type": "uint256"
        }
      ],
      "stateMutability": "view",
      "type": "function"
    },
    {
      "inputs": [
        {
          "internalType": "uint256",
          "name": "interval",
          "type": "uint256"
        }
      ],
      "name": "setRiskCheckInterval",
      "outputs": [],
      "stateMutability": "nonpayable",
      "type": "function"
    },
    {
      "inputs": [],
      "name": "totalDeposited",
      "outputs": [
        {
          "internalType": "uint256",
          "name": "",
          "type": "uint256"
        }
      ],
      "stateMutability": "view",
      "type": "function"
    },
    {
      "inputs": [
        {
          "internalType": "address",
          "name": "newOwner",
          "type": "address"
        }
      ],
      "name": "transferOwnership",
      "outputs": [],
      "stateMutability": "nonpayable",
      "type": "function"
    },
    {
      "inputs": [
        {
          "internalType": "uint256",
          "name": "amount",
          "type": "uint256"
        }
      ],
      "name": "withdraw",
      "outputs": [],
      "stateMutability": "nonpayable",
      "type": "function"
    },
    {
      "stateMutability": "payable",
      "type": "receive"
    }
  ],
  "bytecode": "0x60803461013a57601f61249838819003918201601f19168301916001600160401b0383118484101761013e5780849260209460405283398101031261013a57516001600160a01b0381169081900361013a573315610127575f8054336001600160a01b03198216811783556040519290916001600160a01b0316907f8be0079c531659141344cd1fd0a4f28419497f9722a3daafe3b4186f6b6457e09080a360017f9b779b17422d0df92223018b32b4d1fa46e071723d6817e2486d003becc55f0055610e1060045581156100f25750600180546001600160a01b03191691909117905560405161234590816101538239f35b62461bcd60e51b815260206004820152601060248201526f496e76616c696420737472617465677960801b6044820152606490fd5b631e4fbdf760e01b5f525f60045260245ffd5b5f80fd5b634e487b7160e01b5f52604160045260245ffdfe608080604052600436101561001c575b50361561001a575f80fd5b005b5f3560e01c90816301640f7b14611afb575080630e2a8ad5146119fb578063157695ad146117675780632e1a7d4d146116005780632e90c1a9146115de5780633ba1bfce1461146d5780633c652a9a146114215780634ddd6dda146113c25780634f38f57d146110b8578063569febde146110975780636a1ceb2d1461106f578063715018a614611018578063762c3c5414610ffd5780637652c5c314610fdc5780637efc77fa14610fae5780638da5cb5b14610f87578063939c306f14610de0578063c73c839c14610dbe578063d0e30db014610c95578063d43a298d1461051b578063d97df1c4146104fe578063e96bc0b214610202578063ef32bc00146101e1578063f2fde38b1461015c5763ff50abdc1461013b575f61000f565b34610158575f366003190112610158576020600254604051908152f35b5f80fd5b3461015857602036600319011261015857610175611b83565b61017d6121bd565b6001600160a01b031680156101ce575f80546001600160a01b03198116831782556001600160a01b0316907f8be0079c531659141344cd1fd0a4f28419497f9722a3daafe3b4186f6b6457e09080a3005b631e4fbdf760e01b5f525f60045260245ffd5b34610158575f366003190112610158576020604051662386f26fc100008152f35b346101585761021036611d08565b5061023073037bb9c718f3f7fe5ecbdb0b600d607b527067763314611eef565b60058110156104ea5760209160026102579214806104e0575b61025290611fbc565b611f2b565b510151805181019060c081602084019303126101585760208101516001600160401b0381116101585782602061028f92840101612125565b9060408101516001600160401b038111610158578360206102b292840101612125565b5060608101516001600160401b038111610158578360206102d59284010161213f565b5060808101516001600160401b038111610158578360206102f89284010161213f565b5060a08101516001600160401b0381116101585783602061031b9284010161213f565b5060c0810151906001600160401b038211610158570182603f820112156101585760208101519061034b82611b6c565b936103596040519586611b4b565b8285526020808087019460051b84010101918183116101585760408101935b83851061049e5787877f9a757bd2b8df3083e15ad57df8812b6f241a9cde7b49d9743f1261070f5cd2c288602081519101201480610494575b6103dc575b505f52600560205261001a60405f2060035f918281558260018201558260028201550155565b5f5b815181101561048c575f806103f38385611f48565b5160208151910182305af1610406611f8d565b501561045457807f764ed04c59ba8422756b9b5a2fc22bc61783bd86c91bdc81218bce76d8c1479e61044b61043d60019486611f48565b516040519182918883611ff7565b0390a1016103de565b60405162461bcd60e51b815260206004820152601060248201526f151bdbdb0818d85b1b0819985a5b195960821b6044820152606490fd5b5050816103b6565b50805115156103b1565b84516001600160401b0381116101585760209083010183603f82011215610158576020916104d585836040868096015191016120ef565b815201940193610378565b5080511515610249565b634e487b7160e01b5f52602160045260245ffd5b34610158575f366003190112610158576020600354604051908152f35b5f3660031901126101585761052e6121bd565b670354a6ba7a18000061054381341015612011565b6060604051916105538284611b4b565b60028352601f198201915f5b838110610c7257506040519261057484611b30565b60409384516105838682611b4b565b601881527f77697468647261772875696e7432353620616d6f756e742900000000000000006020820152815284516105bb8482611b4b565b602a81527f5769746864726177205354542066726f6d207661756c7420286d617820353025602082015269206f6620746f74616c2960b01b86820152602082015261060586611f2b565b5261060f85611f2b565b50835161061b81611b30565b84516106278682611b4b565b602081527f726562616c616e6365546f2861646472657373206e657753747261746567792960208201528152845161065f8682611b4b565b601d81527f4368616e6765207969656c6420737472617465677920616464726573730000006020820152602082015261069786611f38565b526106a185611f38565b506106aa61205d565b906106b361205d565b9085516106c08782611b4b565b600681526573797374656d60d01b60208201526106dc84611f2b565b526106e683611f2b565b5085516106f4608082611b4b565b605181527f596f752061726520612044654669207269736b206d616e616765722e2052657460208201527f75726e20746f6f6c2063616c6c7320746f2070726f746563742066756e64732e87820152701021329031b7b739b2b93b30ba34bb329760791b8582015261076583611f2b565b5261076f82611f2b565b50855161077c8782611b4b565b60048152633ab9b2b960e11b602082015261079684611f38565b526107a083611f38565b506107ac60025461222c565b9060018060a01b036001541687516107c48982611b4b565b601081526f181899199a1a9b1b9c1cb0b131b232b360811b60208201528851916107ee8884611b4b565b602a83526020830193368537825115610c5e5760308453825160011015610c5e57607860218401535f5b60148110610bb5575050506020926025610891936018938b519687946402a2b261d160dd1b828701528051918291018587015e8401907f205354542e2043757272656e742073747261746567793a20000000000000000084830152518092603d83015e01015f838201520301601f198101835282611b4b565b61089a82611f38565b526108a481611f38565b5084519060406108b48184611b4b565b60018352601f19015f5b818110610b915750509061095c61096e9287516108db8782611b4b565b602481527f68747470733a2f2f6d63702e736f6d6e69612e6e6574776f726b2f646566692d6020820152636e65777360e01b8982015261091a84611f2b565b5261092483611f2b565b50875163d068390560e01b602082015260c060248201529461094a9060e4870190612097565b85810360231901604487015290612097565b83810360231901606485015290612097565b602319828203016084830152855180825260208201906020808260051b8501019801915f905b828210610b435788610a0a898960208a8f816109c691600360a4830152600160c483015203601f198101835282611b4b565b85516345de5df160e11b815267b24ac1afbcefc70860048201523060248201526374b5e05960e11b6044820152608060648201529485918291906084830190611f5c565b03818573037bb9c718f3f7fe5ecbdb0b600d607b527067765af1928315610b39575f93610b05575b506003845191610a4183611b15565b848352602083019060018252868401905f82528401915f8352865f526005602052875f2094518555516001850155516002840155519101557fcf1a80946734e8a7747281233f69d3edf02da4e26902f1d2c20429242d0200dd83805184815260016020820152a1803411610aba575b5060209151908152f35b3403348111610af1575f80808093818115610ae8575b3390f115610ade5782610ab0565b50513d5f823e3d90fd5b506108fc610ad0565b634e487b7160e01b5f52601160045260245ffd5b9092506020813d602011610b31575b81610b2160209383611b4b565b8101031261015857519184610a32565b3d9150610b14565b84513d5f823e3d90fd5b9091929398602080610b818b6001948e601f1990820301875283610b718b5193845190808552840190611f5c565b9201519084818403910152611f5c565b9b96019493919091019101610994565b80866020809387010152016108be565b634e487b7160e01b5f52604160045260245ffd5b8060130360138111610af1576001600160fd1b0381168103610af15760031b82901c906001600160f81b0319610bf2600484901c60ff168661221b565b5116918160011b9282840460021483151715610af157836002019081600211610af157610c22905f1a918861221b565b536001600160f81b031990610c3a90600f168661221b565b51169160030180600311610af157610c576001935f1a918761221b565b5301610818565b634e487b7160e01b5f52603260045260245ffd5b602090604051610c8181611b30565b83815283838201528282880101520161055f565b5f36600319011261015857610ca86121e3565b3415610d84575f8060018060a01b03600154166040516020810190630d0e30db60e41b825260048152610cdc602482611b4b565b519134905af1610cea611f8d565b5015610d3f57600254348101809111610af1576002556040513481527f2da466a7b24304f47e87fa2e1e5a81b9831ce54fec19055ce277ca2f39ba42c460203392a260015f5160206122f05f395f51905f5255005b60405162461bcd60e51b815260206004820152601760248201527f5374726174656779206465706f736974206661696c65640000000000000000006044820152606490fd5b60405162461bcd60e51b81526020600482015260126024820152710416d6f756e74206d757374206265203e20360741b6044820152606490fd5b34610158575f36600319011261015857602060405167b6d47da8dbbcb1b18152f35b3461015857602036600319011261015857610df9611b83565b610e016121bd565b6001600160a01b0381169081151580610f72575b15610f43575f8060018060a01b036001541660405182602082019163429c145b60e11b835260048152610e49602482611b4b565b51925af1610e55611f8d565b5015610f0c575f809147604051906020820191631bcbec4d60e31b835260048152610e81602482611b4b565b51925af1610e8d611f8d565b5015610ed657600180546001600160a01b0319811683179091556001600160a01b03167f33247bce116fb1fc426b3b8b4ee0261a3def3d39f8c892e1f2909ca1f93f2e445f80a3005b60405162461bcd60e51b815260206004820152600e60248201526d11195c1bdcda5d0819985a5b195960921b6044820152606490fd5b60405162461bcd60e51b815260206004820152600f60248201526e15da5d1a191c985dc819985a5b1959608a1b6044820152606490fd5b60405162461bcd60e51b8152602060048201526007602482015266125b9d985b1a5960ca1b6044820152606490fd5b506001546001600160a01b0316821415610e15565b34610158575f366003190112610158575f546040516001600160a01b039091168152602090f35b34610158575f36600319011261015857602060405173037bb9c718f3f7fe5ecbdb0b600d607b527067768152f35b34610158575f36600319011261015857602060405166f8b0a10e4700008152f35b34610158575f36600319011261015857602060405160038152f35b34610158575f366003190112610158576110306121bd565b5f80546001600160a01b0319811682556001600160a01b03167f8be0079c531659141344cd1fd0a4f28419497f9722a3daafe3b4186f6b6457e08280a3005b34610158575f366003190112610158576001546040516001600160a01b039091168152602090f35b34610158575f366003190112610158576020604051666a94d74f4300008152f35b5f366003190112610158576110cb6121bd565b6112a4670354a6ba7a1800006110e381341015612011565b602080611193604260406110f860025461222c565b81519485917f43757272656e7420535454206465706f736974656420696e207661756c743a20828401528051918291018484015e81017f2e2052657475726e2061207269736b2073636f72652066726f6d203020287665838201527f727920736166652920746f20313030202865787472656d656c79207269736b79606082015261149760f11b608082015203016022810184520182611b4b565b61125f60806111bc6040519363c6833c3d60e01b8686015260a0602486015260c4850190611f5c565b7f6c69747920616e642070726f746f636f6c207269736b2e00000000000000000060608583039260231984016044880152605781527f596f7520617265206120636f6e7365727661746976652044654669207269736b888201527f20616e616c7973742e20436f6e7369646572206d61726b657420766f6c617469604082015201525f606485015260646084850152600160a48501526060810184520182611b4b565b6040516345de5df160e11b815267b24ac1afbcefc7086004820152306024820152631dd0dfe760e11b6044820152608060648201529384918291906084830190611f5c565b03818473037bb9c718f3f7fe5ecbdb0b600d607b527067765af191821561137a575f9261138e575b506040516112d981611b15565b8281526003602082015f8152604083015f815260608401915f8352865f52600560205260405f2094518555516001850155516002840155519101557fcf1a80946734e8a7747281233f69d3edf02da4e26902f1d2c20429242d0200dd604080518481525f6020820152a1803411611356575b602082604051908152f35b3403348111610af1575f80808093818115611385575b3390f11561137a578161134b565b6040513d5f823e3d90fd5b506108fc61136c565b9091506020813d6020116113ba575b816113aa60209383611b4b565b81010312610158575190826112cc565b3d915061139d565b34610158576020366003190112610158576004356113de6121bd565b80156113e957600455005b60405162461bcd60e51b815260206004820152601060248201526f125b9d985b1a59081a5b9d195c9d985b60821b6044820152606490fd5b34610158576020366003190112610158576004355f526005602052608060405f208054906001810154906003600282015491015491604051938452602084015260408301526060820152f35b346101585761147b36611d08565b5061149b73037bb9c718f3f7fe5ecbdb0b600d607b527067763314611eef565b60058110156104ea5760209160026114bc9214806104e05761025290611fbc565b5101516020818051810103126101585760206050910151825f52600560205280600260405f2001557fe0199e222b3123f46e78b2b70591e524e168bfc5f9597ebd5a08e7f06643533a60408051858152836020820152a113806115d3575b61152057005b600254601e810290808204601e1490151715610af157606490045f806040516020810190632e1a7d4d60e01b825284602482015260248152611563604482611b4b565b519082305af1611571611f8d565b5061157857005b7f764ed04c59ba8422756b9b5a2fc22bc61783bd86c91bdc81218bce76d8c1479e9160405191632e1a7d4d60e01b60208401526024830152602482526115bf604483611b4b565b6115ce60405192839283611ff7565b0390a1005b50600254151561151a565b34610158575f36600319011261015857602060405167b24ac1afbcefc7088152f35b346101585760203660031901126101585760043561161c6121e3565b801580158061175b575b15611725575f8060018060a01b0360015416604051826020820191632e1a7d4d60e01b835287602482015260248152611660604482611b4b565b51925af161166c611f8d565b50156116e05781905f906116d7575b5f80809381933390f11561137a5761169581600254611f80565b6002556040519081527f7084f5476618d8e60b11ef0d7d3f06914655adb8793e28ff7f018d4c76d505d560203392a260015f5160206122f05f395f51905f5255005b506108fc61167b565b60405162461bcd60e51b815260206004820152601860248201527f5374726174656779207769746864726177206661696c656400000000000000006044820152606490fd5b60405162461bcd60e51b815260206004820152600e60248201526d125b9d985b1a5908185b5bdd5b9d60921b6044820152606490fd5b50600254821115611626565b5f3660031901126101585761177a6121bd565b6701aa535d3d0c00008034106119aa576118be6040519161179c608084611b4b565b604b83527f68747470733a2f2f6170692e636f696e6765636b6f2e636f6d2f6170692f763360208401527f2f73696d706c652f70726963653f6964733d626974636f696e2676735f63757260408401526a1c995b98da595ccf5d5cd960aa1b6060840152602061185361187a604095611865875161181a8982611b4b565b600b81526a189a5d18dbda5b8b9d5cd960aa1b868201528851631dde098160e11b81880152606060248201529485936084850190611f5c565b83810360231901604485015290611f5c565b6008606483015203601f198101835282611b4b565b84516345de5df160e11b815267b6d47da8dbbcb1b16004820152306024820152630e2a8ad560e01b6044820152608060648201529384918291906084830190611f5c565b03818473037bb9c718f3f7fe5ecbdb0b600d607b527067765af19182156119a0575f9261196c575b5082516118f281611b15565b828152600360208201600281528583015f815260608401915f8352865f526005602052875f2094518555516001850155516002840155519101557fcf1a80946734e8a7747281233f69d3edf02da4e26902f1d2c20429242d0200dd83805184815260026020820152a1803411610aba575060209151908152f35b9091506020813d602011611998575b8161198860209383611b4b565b81010312610158575190836118e6565b3d915061197b565b83513d5f823e3d90fd5b60405162461bcd60e51b815260206004820152602360248201527f496e73756666696369656e74206465706f73697420666f72204a534f4e206167604482015262195b9d60ea1b6064820152608490fd5b3461015857611a0936611d08565b50611a2973037bb9c718f3f7fe5ecbdb0b600d607b527067763314611eef565b60058110156104ea5760021480611af1575b15611ab857611a4b602091611f2b565b510151602081519181808201938492010103126101585760407fb72c923fd54a54b323548d553fb02cb2b6bcf2bd0e2b68a02e01b69c8c6f7ad991518151908482526020820152a15f52600560205261001a60405f2060035f918281558260018201558260028201550155565b60405162461bcd60e51b81526020600482015260116024820152701294d3d3881859d95b9d0819985a5b1959607a1b6044820152606490fd5b5080511515611a3b565b34610158575f366003190112610158576020906004548152f35b608081019081106001600160401b03821117610ba157604052565b604081019081106001600160401b03821117610ba157604052565b90601f801991011681019081106001600160401b03821117610ba157604052565b6001600160401b038111610ba15760051b60200190565b600435906001600160a01b038216820361015857565b35906001600160a01b038216820361015857565b6001600160401b038111610ba157601f01601f191660200190565b9080601f8301121561015857813591611be083611b6c565b92611bee6040519485611b4b565b80845260208085019160051b830101918383116101585760208101915b838310611c1a57505050505090565b82356001600160401b03811161015857820160c0818703601f190112610158576040519160c083018381106001600160401b03821117610ba157604052611c6360208301611b99565b835260408201356001600160401b0381116101585760209083010187601f82011215610158578035611c9481611bad565b91611ca26040519384611b4b565b818352896020838301011161015857815f9260208093018386013783010152602084015260608201359260058410156101585760c060209493859460408401526080810135606084015260a08101356080840152013560a0820152815201920191611c0b565b90608060031983011261015857600435916024356001600160401b0381116101585781611d3791600401611bc8565b91604435600581101561015857916064356001600160401b038111610158576101e0818303600319011261015857604051916101e083018381106001600160401b03821117610ba15760405281600401358352611d9660248301611b99565b6020840152611da760448301611b99565b604084015260648201356001600160e01b03198116810361015857606084015260848201356001600160401b0381116101585782018160238201121561015857600481013590611df682611b6c565b91611e046040519384611b4b565b808352602060048185019260051b840101019184831161015857602401905b828210611ed757505050608084015260a4820135906001600160401b038211610158576004611e5492840101611bc8565b60a083015260c481013560c083015260e481013560e0830152610104810135610100830152610124810135610120830152610144810135610140830152610164810135600581101561015857610160830152610184810135906002821015610158576101c4916101808401526101a48101356101a084015201356101c082015290565b60208091611ee484611b99565b815201910190611e23565b15611ef657565b60405162461bcd60e51b815260206004820152600d60248201526c4f6e6c7920706c6174666f726d60981b6044820152606490fd5b805115610c5e5760200190565b805160011015610c5e5760400190565b8051821015610c5e5760209160051b010190565b805180835260209291819084018484015e5f828201840152601f01601f1916010190565b91908203918211610af157565b3d15611fb7573d90611f9e82611bad565b91611fac6040519384611b4b565b82523d5f602084013e565b606090565b15611fc357565b60405162461bcd60e51b815260206004820152600c60248201526b1059d95b9d0819985a5b195960a21b6044820152606490fd5b60409061200e939281528160208201520190611f5c565b90565b1561201857565b60405162461bcd60e51b815260206004820152601c60248201527f496e73756666696369656e74206465706f73697420666f72204c4c4d000000006044820152606490fd5b6040516060919061206e8382611b4b565b6002815291601f1901825f5b82811061208657505050565b80606060208093850101520161207a565b9080602083519182815201916020808360051b8301019401925f915b8383106120c257505050505090565b90919293946020806120e0600193601f198682030187528951611f5c565b970193019301919392906120b3565b9291926120fb82611bad565b916121096040519384611b4b565b829481845281830111610158578281602093845f96015e010152565b9080601f8301121561015857815161200e926020016120ef565b9080601f8301121561015857815161215681611b6c565b926121646040519485611b4b565b81845260208085019260051b820101918383116101585760208201905b83821061219057505050505090565b81516001600160401b038111610158576020916121b287848094880101612125565b815201910190612181565b5f546001600160a01b031633036121d057565b63118cdaa760e01b5f523360045260245ffd5b60025f5160206122f05f395f51905f52541461220c5760025f5160206122f05f395f51905f5255565b633ee5aeb560e01b5f5260045ffd5b908151811015610c5e570160200190565b80156122cf5780815f925b6122b6575061224582611bad565b916122536040519384611b4b565b80835281601f1961226383611bad565b013660208601375b61227457505090565b600a82066030019182603011610af1578115610af1575f1990910191600a919060f81b6001600160f81b0319165f1a6122ad848661221b565b5304908161226b565b90915f198114610af1576001019190600a900480612237565b506040516122de604082611b4b565b60018152600360fc1b60208201529056fe9b779b17422d0df92223018b32b4d1fa46e071723d6817e2486d003becc55f00a264697066735822122098db14bc14741aadfdc6b1203d4fa02a7102ea6f647dedb8b5b74b4627d6761164736f6c634300081c0033",
  "linkReferences": {},
  "deployedLinkReferences": {},
  "immutableReferences": {},
  "inputSourceName": "project/contracts/CortexYieldVault.sol",
  "buildInfoId": "solc-0_8_28-22160dc08ee5663e52f11d2ba0822e2095cf28ef"
}